:08000000D21004000000000012
:040028006002000072
:040034000C030000B9
:040044008002000036
:08005400000200002002000080
:04010C00A20200004B
:04012C00400200008D
:100400004200F8003600F8003200F800801F780043
:10041000200020000C000900B01F78008560A900B2
:10042000A00120000C0009004F1078004F00780058
:100430003200F9003600F9004200F90000400600E1
:100440008580A9004200F8003600F8003200F8006C
:10045000801F7800200020000C000900B01F7800E9
:10046000A00120000C0009004F1078004F00780018
:100470003200F9003600F9004200F90000400600A1
:100480004200F8003600F8003200F800801F7800C3
:10049000200020000C000900B01F78008C20A9006B
:1004A000A00120000C0009004F1078004F007800D8
:1004B0003200F9003600F9004200F9000040060061
:1004C0004200F8003600F8003200F800801F780083
:1004D000200020000C000900B01F78008400A90053
:1004E000A00120000C0009004F1078004F00780098
:1004F0003200F9003600F9004200F9000040060021
:100500004200F8003600F8003200F800801F780042
:10051000200020000C000900B01F78001009A8007E
:1005200084E0A900A00120000C0009004F10780011
:100530004F0078003200F9003600F9004200F9005F
:10054000004006004200F8003600F8003200F800D3
:10055000801F7800200020000C000900B01F7800E8
:10056000CC22A800C600090000000000CC22A9008F
:100570008B20A900A00120000C0009004F1078007A
:100580004F0078003200F9003600F9004200F9000F
:1005900000400600851F7800C50020000300090008
:1005A000B51F78000202B80003F0A6000200370071
:1005B0000383B900010037000303B8004200A9001B
:1005C0008502430060844B0001F0A6000200370062
:1005D000028BB90001003700020BB80085024B0006
:1005E00008844B000980B000038BB90008044B005D
:1005F00087834C0087017800080178008500780027
:10060000040078002501200003000900CF127800C3
:10061000CF027800000006004200F8003600F80023
:100620003200F800801F7800200020000C00090034
:10063000B01F7800CC02A800B4458000E10242005F
:10064000E4012000110009008482D800B14588002F
:10065000B608F800F608F900B4458000EA02420046
:10066000E4012000110009008482D800C1478800FD
:10067000B4458000F4024200E401200011000900AA
:100680008482D800D1478800D62DEF00B46E800058
:100690006320E100CB003D00B46E80006420B80010
:1006A0004490200084024000B46E80006220B800B4
:1006B000648F200004004000100378004130DD000A
:1006C000848B2000040040000002780014007800B1
:1006D0008000EB0000F0A7008080EB000400200009
:1006E000B41A7800B41A7800B46E80006420B800A0
:1006F0004490200084024000B46E80006420B80062
:100700004490200004004000C4002000301A78000B
:10071000301A78001289BF008000EB0000F0A700BB
:100720008080EB00000178008101780006007800ED
:1007300087007800CA0202000000000004002000C8
:10074000B41A7800B41A7800B46E80006420B8003F
:100750004490200004004000A4002000301A7800DB
:10076000301A78006030E1001600350002003C00CD
:100770006028E10013003600B46E80006420B800E9
:100780004490200084024000B46E80006420B800D1
:100790004490200004004000C4002000301A78007B
:1007A000301A78000DC0BF00804A78009742980048
:1007B0000FC0BF00A042980000C0B300B042980034
:1007C0003E003700B46E80006420B80044902000E2
:1007D00004004000A4002000301A7800301A78008D
:1007E0006030E10035003C00020035006028E10087
:1007F00032003100B46E80006420B80044902000C4
:1008000084024000B46E80006420B8004490200050
:10081000040040000002780003002000B4197800B2
:10082000B419780004002000800A5200040020005F
:10083000812A5A00B46E80006420B80044902000E1
:1008400084024000B46E80006420B8004490200010
:1008500004004000C4002000301A7800301A7800EC
:100860000DC0BF00804A7800974298000FC0BF00BB
:10087000A042980000C0B300B0429800B46E80005F
:100880006420B8004490200084024000B46E8000D0
:100890006420B8004490200004004000000278006A
:1008A00003002000B4197800B41978000400200077
:1008B000800A520004002000812A5A00B46E800091
:1008C0006420B8004490200084024000B46E800090
:1008D0006420B8004490200004004000C4002000C0
:1008E000301A7800301A780004272000840A430068
:1008F000E0AA4B00B46E80006420B8004490200051
:1009000004004000A4002000301A7800301A78005B
:100910006030E1001000350003003C00144C200062
:100920000520E1000C003100B46E80006420B800A6
:10093000449020008402400010CCB300804A78002C
:1009400040C0B3009042980000C0B300A04298009D
:1009500000C0B300B0429800B46E80006420B800BC
:100960004490200004004000A4002000301A7800C9
:10097000301A78006030E10010003C0003003500C0
:10098000040220000520E1000C003600B46E800057
:100990006420B800449020008402400000C2B300EC
:1009A000804A780000C0B3009042980000C0B300B5
:1009B000A042980000C0B300B0429800D62DEC00D1
:1009C00032FF370004C9BF00D6E1B70005C9BF0038
:1009D000D7E1B70008C9BF00D8E1B70009C9BF0017
:1009E000D9E1B7000CC9BF00DAE1B7000DC9BF00FB
:1009F000DBE1B700B44580006F20E1000200310068
:100A0000C482A80001003700C482A900CC02A9005A
:100A10008460A900A00120000C0009004F1078009C
:100A20004F0078003200F9003600F9004200F9006A
:100A300000400600851F7800C50020000300090063
:100A4000B51F780000027800810278000203780068
:100A5000830378000000EB008000EB000001EB0056
:100A60008001EB000800A10007F0A6000800370095
:100A70000800A0008783EA000683EA008582EA0076
:100A80000402EA00E0824A0060034B00E0834B006E
:100A90008504720002003A008704730015003200DA
:100AA000394720000340A7000B0037004200A9008F
:100AB0000482D2008582D2000683D2008783D200CE
:100AC0000080D2008180D2000281D2008381D200D6
:100AD0008904E900F3FF3A00C44CDD004200A9009C
:100AE00009F0A1000340A10083816C000800A70069
:100AF00003F0A0002501200003000900CF127800B8
:100B0000CF02780000000600881F7800280120002E
:100B100004000900B81F7800878669000304780084
:100B200087047800FA7F20004200A9004220A90033
:100B300044C4DE00080465000800E0006C003200D8
:100B40004200A9004220A900C4CCDE00890465004F
:100B50000900E000660032000005EB0009065400C1
:100B600003003900FC3FB000610031000400370091
:100B70001B4020000B0656005D0039005C0032006F
:100B80000004EB008004EB000005EB008005EB00A7
:100B9000F301B2000340A000F701B2000740A0003B
:100BA0008C1F78006C0320000400500085805800E2
:100BB0000601590087815900020033000600310008
:100BC00006003A0004004000858048000601490004
:100BD00087814900010037000800A0000C06E900E9
:100BE0000B0032004200A9000080D2008180D200B8
:100BF0000281D2008381D2004200A9000884D20081
:100C00008984D2000A85D2008B85D200E6FF3700A6
:100C10004F0678000B50A700010037000600370090
:100C20004200A9008B85D3000A85D3008984D300B4
:100C30000884D300030037000C06E9004200A90035
:100C40002B0032004200AF00090037000080D200C4
:100C50008180D2000281D2008381D2000402500040
:100C60008582580006035900878359001500390012
:100C70000804E80013003A008904E80011003A0073
:100C80000A05E8000F003A008B05E8000D003A0065
:100C90000C06E800160032000A0037000C06E900D6
:100CA000130032000B40A700060037004200A900E5
:100CB0000884D2008984D2000A85D2008B85D200B4
:100CC000F8FF37004466DD004200A9000CF0A100E7
:100CD0000DF0A7000CF0A0000B40A1008B016E00EE
:100CE0000A017800890078000800780005003700C4
:100CF000000020000100200002002000030020006E
:100D000000003700A8012000040009004F147800FB
:100D10004F04780000000600881F7800280120009A
:100D200004000900B81F78008005EB006066B80079
:100D30000304780087047800FA7F20004200A900AD
:100D40004220A90044C4DE00080465000800E00059
:100D5000710032004200A9004220A900C4CCDE008C
:100D6000890465000900E0006B003200088444003B
:100D700009B0A70004003700F83FB1006600320058
:100D800065003900030037001A4020008542450005
:100D900061003100878669004200A9004220A90055
:100DA000F300B2000340A000F700B2000740A0002B
:100DB000881F78000124B800002DB8000A054400FF
:100DC0008B854C000C80B0000224B8008B054400D9
:100DD0000C864C00012CB8000005EB008B0544008C
:100DE0000C864C000A80B0000034B8008B0544002B
:100DF0000C864C000A80B0008005EB000324B8008C
:100E00000C0644000A854C000B80B000022CB80090
:100E10000C0644000A854C000B80B0000134B80079
:100E20000C0644000A854C000B80B000003CB80062
:100E30000C0644000A854C000B80B0000C007800C2
:100E40000006EB00032CB8000A0544008B854C001B
:100E50000C80B0000234B8000A0544008B854C00B9
:100E60000C80B0000334B8008B0544000C864C00A5
:100E7000013CB8000A0544008B854C000C80B00092
:100E8000023CB8008B0544000C864C00033CB800C3
:100E90000C0644008A0078000B0178008C01780071
:100EA000540020004200A9008381D3000281D300B6
:100EB0008180D3000080D3000402E900F9FF3A00EA
:100EC0004F0478000804E8000103700001003200BC
:100ED0000200370003037100080032000340A7003E
:100EE000060037004200A9000080D2008180D200B5
:100EF0000281D2008381D2000804E9004444DD006D
:100F000003F0A1000DF0A70003F0A0000340A10032
:100F100083016C00030037006000B8006001B80076
:100F200000003700A8012000040009004F147800D9
:100F30004F04780000000600851F7800C5002000DF
:100F400005000900B51F78000304780082037800CB
:100F50000103780080027800830478003B4720007A
:100F6000C499DE00FA7F2000830165008385550067
:100F7000F801B2000840A0000000EB008000EB0088
:100F80000001EB008001EB004200A9000884D300BF
:100F90008783D3000683D3008582D3008381D30067
:100FA0000281D3008180D3000080D3008B05E9004B
:100FB000F5FF3A0009F0A600090037000080EA00BA
:100FC0008180EA000281EA008381EA000000E800F3
:100FD0000180B0000280B0000380B0000000370044
:100FE0006501200005000900CF127800CF027800CB
:100FF00000000600851F7800861F7800871F780094
:10100000881F7800102DEF00122DEF00142DEF0037
:10101000162DEF0014002000C4688800C46880000A
:10102000A30F20000418E10053003500188DBF0005
:101030008001EB0000F0A7008081EB0083007800C6
:10104000030178001A050200000000000002780089
:1010500081027800020378008303780000002000FA
:10106000010020000200200003FF2300840502008D
:1010700000000000800278000103780082037800FD
:1010800003047800851F7800861F7800871F78008A
:101090000500780086007800070178008801780054
:1010A000040020000500200006002400F7082400AA
:1010B0008C06020000000000CF0378004F03780088
:1010C000CF02780080027800010378008203780064
:1010D00003047800851F7800861F7800871F78003A
:1010E0000500780086007800070178008801780004
:1010F000040020000500200006002000E703240073
:101100008405020000000000CF0378004F03780040
:10111000CF02780010ADB70091688800A2688800FF
:10112000B3688800C46880006220B8004491200041
:1011300084024000851F7800108DBF0091688000F8
:10114000A2688000B368800074C02700E587210092
:1011500016C22300A7F72300840502000000000048
:10116000CF0278009C07020000000000800A78008F
:10117000182DEC00A9FF37001609F8001409F90032
:101180004F047800CF0378004F037800CF02780037
:1011900000000600881F78002801200004000900D4
:1011A000B81F7800080028004300AF0087036C00D8
:1011B0000000E00007003A000100E00005003A00EE
:1011C0000200E00003003A00FAFF27000A856100F0
:1011D0004220AE00030578008A856B000304780086
:1011E0008704780007067800FD7F20004220A900D0
:1011F0004200A90044C4DE00088466000800E00044
:10120000BC0032004220A9004200A900C4CCDE008C
:10121000898466000900E000BE0032008006EB0011
:101220004220A9004200A9000848E100BA003200AB
:10123000C10033000D00A1000D10A000088454006F
:10124000F300B2000340A000F700B2000740A00086
:101250004803B10016003B004803B0004220A9003B
:101260004200A9008381D3000281D3008180D30092
:101270000080D3000804E900F8FF3A0014003700AA
:101280004803B1000F003B004803B0004220A90012
:101290004200A9008783D3000683D3008582D30050
:1012A0000482D3000804E900F8FF3A001B0037006D
:1012B0000400780085007800060178008701780036
:1012C0000C866D000CF0A7000BF0A200790037002F
:1012D0000BF0A6001F0037000D40A7008C0578001A
:1012E0000080EA008180EA000281EA0083C1EA000E
:1012F000F341B2000000E80005003A008100E80078
:1013000003003A000201E80001003A008341E800CE
:101310000D40A700320037000E0037000BF0A6008A
:101320000C0037000482EA008582EA000683EA00A6
:1013300087C3EA00F741B2000402E80005003A0062
:101340008502E80003003A000603E80001003A00C5
:101350008743E8004220A9004200A90004004000A1
:10136000858048000601490087C149000350A70055
:101370000D30A0000D00A700090037000D10A700D8
:10138000010037000B0037000BF0A70014003700F6
:101390000D30A700290037000D60A00021003700A4
:1013A0000BF0A7000E0037000D30A7002300370018
:1013B0001C0037000BF0A700040037008A057800F6
:1013C0000D30A7001D0037003A0037000D40A00087
:1013D00003C1B2000340A700BFFF37008A057800B1
:1013E000F301B2000284710002003A000084700030
:1013F0000C0032000340A7000A0037004220A90079
:101400004200A9000080D2008180D2000281D20077
:101410008381D2008904E9004220AF003200370006
:10142000F4FF37000D00A7008A0578000D10A70013
:101430008C0578000D50A6001E0037004200A90060
:1014400083C1D3000281D3008180D3000080D30008
:101450004200AF000D50A0008904E8004220AF0018
:10146000210037000D50A6000E0037000000E800F4
:101470000C003A008100E8000A003A000201E8008E
:1014800008003A008301E80006003A0083C1D30057
:101490000281D3008180D3000080D3008904E8005A
:1014A000110032000D00A7008A0578000D10A7007A
:1014B0008C0578000102700002003A0003027100FE
:1014C000260032000340A1004220A9004200A900EA
:1014D000C44CDD0083816C0003F0A0000BF0A6007B
:1014E00003F0A1001D0037006000B8006011B800D3
:1014F0001A003700080028000AF0A70087036C00D4
:1015000085007800040078000601780087017800E3
:101510001200370011003700F700B2000740A000AA
:10152000F300B2000340A0000BF0A7000740A100A9
:101530000D20A00079FF3700F300B2000340A000A7
:10154000F700B2000740A0000904540089044400D9
:101550000D10A1000D00A00049FF3700A8012000D8
:10156000040009004F1478004F04780000000600C2
:10157000851F7800861F7800871F7800881F7800F5
:10158000102DEF00846880006520E10009003C0018
:10159000846880006220B80084B02000840240008B
:1015A000804AEB0000C0B30090429800102DEC0080
:1015B000F4FF37006400200094688800946880007D
:1015C000830C20000418E10038003500128DBF00A4
:1015D0008001EB0000F0A7008081EB008300780021
:1015E000030178001A0502000000000000027800E4
:1015F000810278000203780083037800A099290013
:101600009199290092992900530024008C06020028
:101610000000000080027800010378008203780057
:10162000030478004300A900851F7800861F780016
:10163000871F780005007800860078000701780091
:10164000880178000400200005002000060020002A
:1016500047022400CA08020000000000CF037800FF
:101660004F037800CF0278009C07020000000000C2
:101670000EADB70074688000632220000418E100FA
:1016800002003100642220007468880094688000A1
:101690006220B80084B0200084024000746880009A
:1016A00084029800122DEC00C4FF3700940C200037
:1016B000A4688800A4688000F30F20000418E100EB
:1016C0000A003500A46880006220B80084B02000C1
:1016D0008402400060C2B300804A780020C0B3009A
:1016E00090429800142DEC00F2FF37004F04780070
:1016F000CF0378004F037800CF0278000000060087
:10170000851F7800C500200003000900B51F780080
:1017100000027800810278000203780083037800D9
:101720000000EB008000EB000001EB008001EB000B
:101730000800A10007F0A600080037000800A0007C
:101740008783EA000683EA008582EA000402EA0051
:10175000E0824A0060034B00E0834B008504720086
:1017600002003A0087047300150032003947200058
:101770000340A7000B0037004200A9000482D200FA
:101780008582D2000683D2008783D2000080D200F7
:101790008180D2000281D2008381D2008904E900D5
:1017A000F3FF3A00C44CDD004200A90009F0A1009B
:1017B0000340A10083816C000800A70003F0A00093
:1017C0002501200003000900CF127800CF02780025
:1017D00000000600881F7800891F78008A1F7800A3
:1017E0008784690009F0A600060037004200A900BE
:1017F0004220A90003F0A600340037004200A800F0
:1018000032003700FA7F2000030478008704780054
:1018100044C4DE0008046500C4CCDE008904650011
:10182000088554000500320003F0A60027003700A9
:101830001000200042E0B6002400370003047800C6
:1018400087047800F301B200F701B2000340A10061
:101850000740A10003C553000500320008F0A600B0
:101860001A0037001000200042E0B60017003700D1
:10187000020553000500320008F0A60013003700EF
:101880001000200042E0B600100037000185520031
:101890000500320008F0A6000C0037001000200000
:1018A00042E0B60009003700000552000500320092
:1018B00008F0A600050037001000200042E0B60046
:1018C000020037004200A900000037004F057800F1
:1018D000CF0478004F04780000000600851F7800D0
:1018E000861F7800871F7800881F78003E2DEF0044
:1018F000402DEF00422DEF0004FF2300246A8800F2
:10190000F4F12F00746A880050ADEF0052ADEF0083
:10191000F4FD2B00A46A880054C32100B46A880037
:1019200054552500C46A880054552500D46A88009F
:1019300054FA2300E46A8800C4F12300F46A8800A2
:10194000746A2100046B8800C4162C00146B880094
:1019500064F52B00246B8800643E2F00346B8800F4
:1019600054D62000446B8800041A2000546B880071
:10197000A4EF2300646B8800E4A32000746B88004C
:1019800014932300846B8800C4E42700946B8800C0
:1019900024E92B00A46B8800B4DF2D00B46B880011
:1019A00074B72200C46B880014DB2E00D46B88004F
:1019B00014E22300E46B8800C4FC2600F46B88006A
:1019C00074FF2800046C880004612C00146C8800EB
:1019D00084DA2B00246C8800C4242100346C880035
:1019E000C4E12800446C880094AF2300546C880044
:1019F00034CF2300646C880064672700746C88000F
:101A0000F4502300846C8800E40D2C00946C880052
:101A100004CF2300A46C8800248DBF0031698000AE
:101A20004269800053698000040020000500200006
:101A30000600200007002000EA0B02000000000062
:101A40000500390040D2200041D2200007000900E3
:101A5000B01878002BEDAA00248DBF0031698000FA
:101A6000426980005369800044882C0095DC260080
:101A700006F3250047FE23008C060200000000004C
:101A80009C070200000000002CEDB700248DBF0071
:101A900031698000426980005369800044882C00CD
:101AA00095DC260006F3250047FE23008C06020085
:101AB00000000000800278000103780082037800B3
:101AC0000304780001002000020020000300200031
:101AD0002CCDBF000160EF00800B02000000000071
:101AE0004300A800851F7800861F7800871F7800B4
:101AF00000027800050078008102780086007800F6
:101B000002037800070178008303780088017800D9
:101B1000CA08020000000000CF0378004F037800DD
:101B2000CF02780046ADB700416A8800526A88004B
:101B3000636A88002CCDBF00634060002CEDB700C5
:101B40002C4DE20003003200646980006224E10051
:101B50000F003A00468DBF00416A8000526A800043
:101B6000636A800084D1220045442500B61F22000C
:101B700097FF23008C0602000000000036ADB7007E
:101B8000C1698800D2698800E36988004A0037008B
:101B9000646980006124E10024003A004300A80049
:101BA00000002000010020000200200003FF2300AD
:101BB000346A8000456A8000566A8000676A800047
:101BC000CA080200000000008002780001037800CB
:101BD0008203780003047800851F7800861F780050
:101BE000871F7800050078008600780007017800DC
:101BF0008801780084D1220045442500B61F2200C8
:101C000097FF23008C06020000000000CF0378003D
:101C10004F037800CF02780036ADB700C169880065
:101C2000D2698800E3698800230037004300A800D8
:101C3000468DBF00416A8000526A8000636A80005E
:101C400004002000050020000600200007FF2300FC
:101C5000CA0802000000000080027800010378003A
:101C60008203780003047800851F7800861F7800BF
:101C7000871F78000500780086007800070178004B
:101C80008801780084D1220045442500B61F220037
:101C900097FF23008C06020000000000CF037800AD
:101CA0004F037800CF02780036ADB700C1698800D5
:101CB000D2698800E36988002E2DEF00302DEF00F7
:101CC000322DEF0004FF2300A4698800368DBF0089
:101CD000C1698000D2698000E3698000B469800036
:101CE000C5698000D6698000E76980008C06020023
:101CF0000000000036ADB700C1698800D2698800D5
:101D0000E36988002D6DEF00646980004822DE00E1
:101D10006824E10031003E003E8DBF00016A800072
:101D2000126A8000236A8000B4698000C56980005F
:101D3000D6698000E76980008C0602000000000080
:101D40003EADB700016A8800126A8800236A8800E5
:101D50002DCDBF000160EF004300DD00E4D4200082
:101D60000400400080027800851F7800150078008C
:101D7000D500780055017800D5017800F46980001D
:101D8000056A8000166A8000276A80008C060200BF
:101D900000000000CF0278004300A9000002780094
:101DA0008102780002037800830378002E8DBF0043
:101DB0008169800092698000A3698000CA080200DE
:101DC000000000002EADB70081698800926988008C
:101DD000A36988002D6DEC00CBFF3700646980009B
:101DE0006224E10003003200646980006124E100A4
:101DF00005003A00E0D22000E1D2200007000900EF
:101E0000B018780035EDAA002E8DBF0081698000E2
:101E100092698000A36980004F047800CF037800A6
:101E20004F037800CF02780000000600851F78007D
:101E3000861F7800871F7800881F78004300A8005D
:101E4000148DBF00B1688000C2688000D368800034
:101E500084D1220045442500B61F220097FF2300AD
:101E6000CA08020000000000800278000103780028
:101E700082037800030478002569880036698800A9
:101E800047698800586988006E0C02000000000055
:101E90004F047800CF0378004F037800CF0278001A
:101EA00000000600851F7800C5002000050009001D
:101EB000B51F7800030478008203780001037800DE
:101EC00080027800830478003B472000C499DE003C
:101ED000FA7F20008301650083855500F801B20078
:101EE0000840A0000000EB008000EB000001EB00C8
:101EF0008001EB004200A9000884D3008783D3004F
:101F00000683D3008582D3008381D3000281D3006E
:101F10008180D3000080D3008B05E900F5FF3A00F3
:101F200009F0A600090037000080EA008180EA007D
:101F30000281EA008381EA000000E8000180B0002D
:101F40000280B0000380B00000003700650120006F
:101F500005000900CF127800CF02780000000600CB
:101F6000851F7800861F7800871F7800881F7800FB
:101F7000F428EF00A44780007E20E10057003100E4
:101F8000F488BF00010020000200200003002000B0
:101F9000800B02000000000004002000050020006B
:101FA00006002000070024008C060200000000004C
:101FB000800278000103780082037800030478002F
:101FC000851F7800861F7800871F7800050078003D
:101FD00086007800070178008801780084D122000B
:101FE00045442500B61F2200970024008C060200FD
:101FF00000000000CF0378004F037800CF02780084
:1020000080027800010378008203780003047800DE
:10201000851F7800861F7800871F780005007800EC
:10202000860078000701780088017800040020000D
:102030000500200006002000E703240084050200BC
:1020400000000000CF0378004F037800CF02780033
:10205000FCA8B700F14788000248880013488800B0
:10206000F488BF004100DD00848B20008402400022
:10207000FC08F800140DF900FE08F800160DF90030
:102080000009F800180DF9000209F8001A0DF9000E
:10209000160F020000000000851F78000002780083
:1020A000810278000203780083037800000020009A
:1020B0000100200002002E00F30624008C0602001E
:1020C00000000000CF027800520F02000000000064
:1020D000800A7800F428EC00A6FF37004F0478004F
:1020E000CF0378004F037800CF027800000006008D
:1020F00000C8B300C1E1B70020C0B300C0E1B70021
:1021000020C0B300C5E1B70000C7B300C4E1B70009
:10211000C761EF0010C0B300C6E1B700C961EF00AE
:1021200070C7B300C8E1B700F0C0B300CBE1B7009F
:1021300020C0B300CAE1B700CD61EF0090C0B3008A
:10214000CCE1B700CF61EF00CE61EF00D161EF00CD
:10215000D061EF00F0C7B300D5E1B700F0C7B3001E
:10216000D4E1B700B1C8BF00D7E1B700B0C8BF0025
:10217000D6E1B700B3C8BF00D9E1B700B2C8BF000D
:10218000D8E1B700B5C8BF00DBE1B700B4C8BF00F5
:10219000DAE1B700C160EF0000C7B300C0E0B700EC
:1021A000000006000FF82000F0FF200020A0B7007C
:1021B0000000000040442400200588004044240022
:1021C00030058800404424004005880081E0A800D4
:1021D000B628EF001009A9001229EF00082DEF0022
:1021E0000A2DEF0014002000646888000E2DEF0017
:1021F0001029A9002CA3EF004E003700C0060800EC
:10220000000000004BF03F005C0A5800F63B8F00D6
:1022100000C03C008B28AC003CBEF6003FD2D5008D
:1022200044168C0015D7BF0069005A002E1B87008A
:10223000993F9A005FAD4B0091E40100C05D110031
:102240002F92E40081FB3F0038DA9100809DC500A9
:10225000E0BF6F0012C0B400C309AB003F6BC10008
:10226000034EC100B545BF00F7400500FF005A000E
:10227000EF3FF300A3E2F700D7FF010040C0B40036
:10228000FF053C0058FC3F003BD3C000B5BA8C00B2
:10229000E23F3900D3C73D004179B2003F870D00CE
:1022A0003C50D000AF623F00304B8D00A282AA00AC
:1022B00004400900A0404A000576030040EC9E005F
:1022C0003788A60044F03F008F128D00299A5B00EA
:1022D000C73F0E00E0807C00A1D886003F294B005C
:1022E000FB95C200371A3F0040060000C0060800F8
:1022F000F600C0000C090400000000000201E80024
:102300006110E10004003A009101BA003182BA0084
:1023100006C0BF00000006006210E10002003A00A3
:1023200007C0BF000000060008C0BF000001EB00AE
:102330000000060006002000000020009001880038
:10234000E00F2100800078000001EB007E11020008
:10235000000000000BE0B7007E110200000000004A
:102360000AE0B7000500E0001900320005F0A60001
:10237000070037007E110200000000000DE0B700EA
:102380007E110200000000000CE0B70005F0A10083
:1023900005E0A6000800370005E0A1008502E9007D
:1023A0007E110200000000008043780005800900D3
:1023B000075B7800E5FF37007E1102000000000097
:1023C000005B78008502E900FBFF3A00DFFF370081
:1023D000FA07020000000000B80A02000000000036
:1023E000B00F0200000000000A2DEF0014002000D2
:1023F000646888003208090000000000F4CF2F0054
:1024000044168800CC02A900CC22A9009B20A80079
:102410004567EF0030C4B30044E7B7004767EF00FB
:1024200060C2B30046E7B700781002000000000069
:102430001400200004168800D4FF200044168800F1
:10244000F4CF2F0044168800C802A900C082A9005A
:10245000C822A900F4F1210024198800040E2800E4
:1024600004198800F4FD2F00641988002223EF006E
:102470005400200044198800C60009000000000034
:102480000C8DBF004100DD0044912000040040009D
:10249000900278000421EF0015088800040228004B
:1024A000240888001021EF00C40920006408880077
:1024B000040228008408880094E0A8009460A80022
:1024C00081E0A9004220EF0081E0A8001009AE00E1
:1024D000270037002003A9002023A8002003AE0016
:1024E000FEFF37000003F800080DF900082DD500A5
:1024F000082DD500080DF8000A0DF9005468800079
:10250000F30F20000418E10002003D00F40F20004A
:1025100054688800546880006020E10001003D009C
:102520000A2DEF0054688000650052000CADB70022
:10253000546880006220B80084B02000040040008D
:10254000901F78001209F9000C8DBF004100DD00DA
:102550004491200004004000900278000421EF0024
:102560001508880004022800240888001009A90022
:08257000D6FF37000040FE0019
:0200000401F009
:100000000F00FF000000FF000700FF008300FF005B
:10001000E600FF005F00FF00F700FF00C300FF00E5
:00000001FF
;DSPIC33FJ32MC202
;CRC=20D1  CREATED="23-Apr-24 14:02"
